:1018080000008C31072C8F31F52F8F312D2F8F3120
:10181800372F8F31392F8F313B2F8F31422F8F3117
:10182800492F8F31502F8F31612F8F316F2F8F318B
:101838007F2F8F318D2F8F31A02F8F31AF2F8F3189
:06184800BF2F8F31C42FF9
:10188000640080010131890B412C0034FC302100BF
:101890009900903027009B0021001A1B08004C2C57
:1018A00057302100950022008C0123008C010F305D
:1018B00021008C0022008D0123008D01F0302100D9
:1018C0008D0022008E0123008E010E3021008E003B
:1018D0000800FB00FC017B087C02031808007C0860
:1018E000203E860087010108F8007808F0007C0897
:1018F000383E860087010108F9007908F1000030C0
:101900008400903085000008FA007A08F2007C0814
:10191000503E8600870101088C31D3248C314E3033
:10192000F800EB30890B922CF80B922C0000013060
:10193000F8007808FC076B2CFB00FC017B087C029C
:10194000031808007C08203E860087010108F80083
:101950007808F0007C08383E860087010108F9000D
:101960007908F10000308400903085000008FA000A
:101970007A08F2007C08503E8600870101088C310D
:10198000D3248C310330F900BE30F8004830890B85
:10199000C72CF80BC72CF90BC72C00320130F8000C
:1019A0007808FC079E2CF4007208031908007008E0
:1019B000F30073082000EA000830F3007308F50014
:1019C00075080319F02C0E1400000000EA1F0E1019
:1019D0000000EA350E100130F5027508031DE32CF6
:1019E0007408F30073082000EA000830F30073085D
:1019F000F60076080319092D0E1400000000EA1FF6
:101A00000E100000EA350E100130F6027608031DB4
:101A1000FC2C7108F30073082000EA000830F30082
:101A20007308F70077080319222D0E140000000038
:101A3000EA1F0E100000EA350E100130F702770899
:101A4000031D152D0130F202D42CF9007D08F2009F
:101A5000F301F21BF3037308803AF4008030740240
:101A6000031D342D790872020318FD017D08F20070
:101A70007208F50070080319A72D7D08203E860026
:101A800087010108F20072082000EA000830F20025
:101A90007208F600760803195A2D0E140000000093
:101AA000EA1F0E100000EA350E100130F60276082B
:101AB000031D4D2D7D08503E860087010108F20070
:101AC00072082000EA000830F2007208F700770878
:101AD0000319772D0E1400000000EA1F0E100000FD
:101AE000EA350E100130F7027708031D6A2D7D08D4
:101AF000383E860087010108F20072082000EA00E3
:101B00000830F2007208F80078080319942D0E14BA
:101B100000000000EA1F0E100000EA350E10013030
:101B2000F8027808031D872D0130F2007208FD07C6
:101B30007D08F200F301F21BF303790872067304C7
:101B40000319FD010130F0027008031D3D2D7508D9
:101B5000F2007208FD007108F2007208FD077D08AE
:101B6000F200F301F21BF3037308803AF4008030B3
:101B70007402031DBD2D790872020318FD01FD1FBB
:101B800008007908FF3EF2007208FD0008007F306F
:101B9000F0007008F1007136F0007008F200723643
:101BA000F0007008F300FF30F00070082000D00053
:101BB0007303FF3AFF3EF0007008D100710872070E
:101BC000F0007008D20071087307F0007008D300AD
:101BD0007108F0007008D40072087307F0007008F4
:101BE000D5007208F0007008D6007308F000700885
:101BF000D700D801D901DA01DB01DC01DD01DE010A
:101C0000DF01E0017308F0007008E1007208F000E5
:101C10007008E20072087307F0007008E3007108B2
:101C2000F0007008E40071087307F0007008E50028
:101C300071087207F0007008E6007303FF3AFF3E78
:101C4000F0007008E700A0017308F0007008A10020
:101C50007208F0007008A20072087307F0007008A4
:101C6000A3007108F0007008A40071087307F00069
:101C70007008A50071087207F0007008A6007303D1
:101C8000FF3AFF3EF0007008A700FF30F000700838
:101C9000A8007303FF3AFF3EF0007008A900710826
:101CA0007207F0007008AA0071087307F00070084E
:101CB000AB007108F0007008AC0072087307F00008
:101CC0007008AD007208F0007008AE007308F000F4
:101CD0007008AF00B001B101B201B301B401B501A8
:101CE000B601B701B801B901BA01BB01BC01BD0120
:101CF000BE01BF01C0017308F0007008C100720886
:101D0000F0007008C20072087307F0007008C3008A
:101D10007108F0007008C40071087307F0007008C3
:101D2000C50071087207F0007008C6007303FF3A1F
:101D3000FF3EF0007008C700FF30F0007008C800D8
:101D40007303FF3AFF3EF0007008C9007108720784
:101D5000F0007008CA0071087307F0007008CB002B
:101D60007108F0007008CC0072087307F00070086A
:101D7000CD007208F0007008CE007308F000700803
:101D8000CF0008008C3146248E318C3150248E31A6
:101D90008D31C7258E312000E801E80A0E30EB00B6
:101DA0006B08E90010302000EB009430890BD62E30
:101DB000EB0BD62E000020000D1AF42E6808031D30
:101DC000E32E0130E42E0030EB006B08E800073012
:101DD0002000EC001730EB006A30890BED2EEB0B86
:101DE000ED2EEC0BED2E000020008D1A0E2F0E3084
:101DF0006902031CFD2EE901012F0130EB006B0885
:101E0000E90707302000EC001730EB006A30890B3F
:101E1000072FEB0B072FEC0B072F000020000D1BEB
:101E2000282F6908031D192F0E30EB006B08E900FD
:101E30001B2F0130E90207302000EC001730EB00C7
:101E40006A30890B212FEB0B212FEC0B212F000087
:101E500020006808031DC92FD52FF001F1010030C3
:101E60008400903085000008EB006B089D2F9130B6
:101E70003C2FD7303C2FFF302000EB006B08F000E8
:101E8000F101852FFF302000EB006B08F000F1011D
:101E9000672F80302000EB006B08F0008030562F59
:101EA000FF302000EB006B08F000FF30EC006C0806
:101EB000F10000308400903085000008ED006D08CE
:101EC000DE2FF001FF302000EB006B08F100003046
:101ED0008400903085000008EC006C08DE2FF001D3
:101EE00080302000EB006B08F1000030840090305F
:101EF00085000008EC006C08F2008030E02FF00153
:101F0000FF302000EB006B08F100003084009030BF
:101F100085000008EC006C089D2FFF302000EB00CE
:101F20006B08F000FF30EC006C08F100003084001A
:101F3000903085000008ED006D08F200FF30E02FC2
:101F4000003084009030850000082000EB006B0812
:101F5000F000F10118308D3125258E31E32F00304E
:101F600084009030850000082000EB006B08F00032
:101F7000F101F10318308D3125258E31E32F183012
:101F80008C319C248E31E32F18308C3169248E31B2
:101F9000E32F2000690884000F3004020318E32FA8
:101FA0008C310435093E8200E32FF001F10100304D
:101FB0008400903085000008EB006B08F2000030D0
:101FC0008C31D3248E3102302000EC008630EB00BF
:101FD0009930890BE92FEB0BE92FEC0BE92F20004F
:101FE0008C19DB2E80311C28DB2EFD012030840073
:101FF000003085004B308C31402420008E31C22EC1
:022000003C346E
:020000040001F9
:04000E0084CFCFDFED
:00000001FF
